:100000000C9463000C948B000C948B000C948B006C
:100010000C948B000C948B000C948B000C948B0034
:100020000C948B000C948B000C948B000C94780235
:100030000C948B000C948B000C948B000C948B0014
:100040000C9450060C948B000C94EC030C94330429
:100050000C948B000C948B000C948B000C948B00F4
:100060000C948B000C948B000000000024002700EF
:100070002A0000000000250028002B0000000000DE
:1000800023002600290004040404040404040202DA
:100090000202020203030303030301020408102007
:1000A0004080010204081020010204081020000012
:1000B0000007000201000003040600000000000029
:1000C00000008D00700511241FBECFEFD8E0DEBF09
:1000D000CDBF11E0A0E0B1E0E4EDFEE002C005908C
:1000E0000D92A231B107D9F711E0A2E1B1E001C050
:1000F0001D92A63EB107E1F710E0C6ECD0E004C0C7
:100100002297FE010E946407C23CD107C9F70E94F2
:10011000C6050C9468070C94000082E191E00E94EF
:100120009C01089582E191E06CED75E00E94B601BA
:10013000089582E191E060E679E00E94B6010895B9
:1001400082E191E060E272E00E94B60108958AE0E7
:1001500060E00E94970389E061E00E94970388E0D5
:1001600061E00E9497038AE061E00E94970308958E
:100170008AE060E00E94970389E060E00E949703B4
:1001800088E061E00E9497038AE061E00E949703A3
:1001900008958AE060E00E94970389E061E00E9490
:1001A000970388E060E00E9497038AE061E00E9484
:1001B0009703089582E191E06BE070E00E94710284
:1001C0000E9492008AE061E00E94580389E061E0A9
:1001D0000E94580388E061E00E9458030E94A70033
:1001E0008BE391E040E855E260E070E00E94630438
:1001F00008950F931F930BE311E0C80163E50E947C
:10020000FF05C80160E00E943405C80160E00E945B
:1002100034051F910F910895AF92BF92CF92DF9254
:10022000EF92FF920F931F9380E00E94360300D05D
:1002300000D0AA2797FDA095BA2F2FEF30E040E01D
:1002400050E0EDB7FEB72183328343835483BC0172
:10025000CD0120E030E040E050E0EFEFEE2EE3E0B3
:10026000FE2E012D112DAA24BB2465010E94070634
:10027000062F0F900F900F900F908BE3E82E81E0E8
:10028000F82EC70166E50E943405112707FD109579
:10029000C701602F0E943405C70160E00E94340549
:1002A0001F910F91FF90EF90DF90CF90BF90AF9094
:1002B00008958BE391E00E94EA04892BE1F18BE33E
:1002C00091E00E9406058436910551F1853691052D
:1002D0008CF48635910551F1873591053CF48032D7
:1002E0009105C1F08335910531F523C08136910523
:1002F00011F513C08337910551F08737910521F02F
:1003000081379105C1F40FC00E94C90008950E9471
:10031000B80008950E94A70008950E94A0000895C3
:100320000E94990008950E94920008950E940C0175
:1003300008950E94F9000895FC01809115018C3008
:1003400090F480838F5F80931501815090E0FC01D1
:10035000EE0FFF1FE80FF91FEA5EFE4F88EB9BE0F0
:100360009283818308958FEF80830895FC0120811B
:100370002C30B8F58181992787FD909548E850E0A9
:10038000481B590B440F551F440F551F6417750721
:1003900084F08281992787FD909548E552E0481BBB
:1003A000590B440F551F440F551F641775070CF464
:1003B000AB0142505040CA01AA2797FDA095BA2F21
:1003C000880F991FAA1FBB1F4FB7F89430E0F9019F
:1003D000EE0FFF1FE20FF31FEA5EFE4F9283818351
:1003E0004FBF0895CF92DF92EF92FF921F93CF936A
:1003F000DF93EC01162F7A01690188818C3008F0B7
:1004000064C0862F61E00E945803888190E0FC015F
:10041000EE0FFF1FE80FF91FEA5EFE4F1F7380818A
:10042000807C812B808380E292E08E199F0964E0BA
:1004300070E00E94FE06698380E699E08C199D09B0
:1004400064E070E00E94FE066A83A8818A2F6CE057
:100450000E94F206682F70E0AB01440F551F460F53
:10046000571F440F551F440F551F20E030E0C901AE
:10047000840F951FFC01EE0FFF1FE80FF91FEA5EC6
:10048000FE4F808186FD15C02F5F3F4F2C30310518
:1004900071F724C01092800082E080938100109256
:1004A000850010928400B19A80916F0082608093E1
:1004B0006F008A2F90E0FC01EE0FFF1FE80FF91F7D
:1004C000EA5EFE4F8081806480838881DF91CF91D6
:1004D0001F91FF90EF90DF90CF900895672BD1F29E
:1004E000E8CF40E252E020E639E00E94F2010895B0
:1004F0001F920F920FB60F9211242F933F934F9399
:100500005F936F937F938F939F93AF93BF93EF937B
:10051000FF9380913A0187FF05C0109285001092E9
:1005200084002BC020913A01332727FD309580911C
:10053000150190E02817390704F580913A019927B1
:1005400087FD9095FC01EE0FFF1FE80FF91FEA5E93
:10055000FE4F808186FF11C080913A01992787FD67
:100560009095FC01EE0FFF1FE80FF91FEA5EFE4FAA
:1005700080818F7360E00E94970380913A018F5FC2
:1005800080933A0120913A01332727FD30958091DD
:10059000150190E0281739070CF04EC080913A0100
:1005A0008C300CF049C020918400309185008091FE
:1005B0003A01992787FD9095FC01EE0FFF1FE80F88
:1005C000F91FEA5EFE4F81819281820F931F909303
:1005D00089008093880080913A01992787FD909542
:1005E000FC01EE0FFF1FE80FF91FEA5EFE4F80814E
:1005F00086FF2BC080913A01992787FD9095FC01D9
:10060000EE0FFF1FE80FF91FEA5EFE4F80818F7328
:1006100061E00E94970319C080E49CE905C08091C5
:1006200084009091850004969093890080938800BF
:100630008FEF80933A0109C08091840090918500EA
:10064000049680549C4940F3EACFFF91EF91BF910B
:10065000AF919F918F917F916F915F914F913F915A
:100660002F910F900FBE0F901F901895982F8E30DE
:1006700008F09E509770809100018295880F880F36
:10068000807C892B80937C0080917A0080648093A9
:100690007A0080917A0086FDFCCF2091780040910D
:1006A0007900942F80E030E0282B392BC901089580
:1006B000CF93DF93482F50E0CA0186569F4FFC012D
:1006C00034914A575F4FFA018491882369F190E091
:1006D000880F991FFC01E859FF4FA591B491FC01C7
:1006E000EE58FF4FC591D491662351F42FB7F8947B
:1006F0008C91932F909589238C93888189230BC0AB
:10070000623061F42FB7F8948C91932F90958923E0
:100710008C938881832B88832FBF06C09FB7F89462
:100720008C91832B8C939FBFDF91CF910895482F9D
:1007300050E0CA0182559F4FFC012491CA018656A0
:100740009F4FFC0194914A575F4FFA013491332334
:1007500009F440C0222351F1233071F0243028F4F1
:100760002130A1F0223011F514C02630B1F027302D
:10077000C1F02430D9F404C0809180008F7703C089
:10078000809180008F7D8093800010C084B58F772A
:1007900002C084B58F7D84BD09C08091B0008F7781
:1007A00003C08091B0008F7D8093B000E32FF0E014
:1007B000EE0FFF1FEE58FF4FA591B4912FB7F8949D
:1007C000662321F48C919095892302C08C91892B0A
:1007D0008C932FBF089508951F920F920FB60F921A
:1007E00011242F933F934F938F939F93EF93FF93F6
:1007F0008091C00082FD19C04091C60080915901CE
:10080000282F30E02F5F3F4F2F73307080915A01B7
:1008100090E02817390759F0E0915901F0E0E55CC4
:10082000FE4F42A32093590102C08091C600FF9160
:10083000EF919F918F914F913F912F910F900FBE0C
:100840000F901F9018958091590120915A0190E0C6
:10085000805C9F4F821B91098F739070892B11F0E0
:100860000E94EB0308951F920F920FB60F9211246E
:100870002F938F939F93EF93FF9390915B018091C0
:100880005C01981731F48091C1008F7D8093C10085
:1008900010C0E0915C01F0E0E356FE4F20818091B2
:1008A0005C0190E001968F73907080935C012093BF
:1008B000C600FF91EF919F918F912F910F900FBEE6
:1008C0000F901F901895AF92BF92DF92EF92FF9218
:1008D0000F931F93CF93DF93EC017A018B01DD24FB
:1008E000403081EE580780E0680780E0780711F01B
:1008F000DD24D39491E0A92EB12CE889F989DD207B
:1009000069F0C5010C8C02C0880F991F0A94E2F7A8
:10091000808360E079E08DE390E005C0108260E8BC
:1009200074E88EE190E0A80197010E941107215020
:10093000304040405040569547953795279580E187
:100940002030380720F0DD2011F0DD24D6CFEC85F3
:10095000FD853083EE85FF8520831D8EEA89FB8926
:10096000408121E030E0C901088C02C0880F991F46
:100970000A94E2F7482B4083EA89FB894081C90148
:10098000098C02C0880F991F0A94E2F7482B408314
:10099000EA89FB894081C9010A8C02C0880F991F2E
:1009A0000A94E2F7482B4083EA89FB8980810B8C0B
:1009B00002C0220F331F0A94E2F7209528232083D8
:1009C000DF91CF911F910F91FF90EF90DF90BF903B
:1009D000AF900895FC01268D878D30E0205C3F4F5D
:1009E000281B31092F733070C9010895FC01968DC1
:1009F000878D981719F42FEF3FEF06C0878DE80F0A
:100A0000F11D82A1282F30E0C9010895DC015E9616
:100A10009C915E975F968C915F97981719F42FEFD2
:100A20003FEF10C05F968C915F97FD01E80FF11DBD
:100A300092A15F968C915F978F5F8F735F968C9377
:100A4000292F30E0C9010895DC015D968C915D97F6
:100A5000882339F05096ED91FC915197808186FF63
:100A6000F9CF5D961C920895DC0190968C91909739
:100A7000282F30E02F5F3F4F2F73307091968C916D
:100A8000919790E028173907C9F390968C91909729
:100A9000FD01E80FF11DEE59FF4F608390962C93F6
:100AA00090975296ED91FC915397208181E090E0D0
:100AB0005B960C905B9702C0880F991F0A94E2F72F
:100AC000282B208381E05D968C935D975096ED9165
:100AD000FC91519780818064808381E090E008954B
:100AE00010923E0110923D0188EE93E0A0E0B0E04C
:100AF00080933F0190934001A0934101B093420144
:100B000085E091E090933C0180933B0110925C0161
:100B100080915C0180935B0110925A0180915A018F
:100B20008093590185EC90E09093480180934701B0
:100B300084EC90E090934A018093490180EC90E02E
:100B400090934C0180934B0181EC90E090934E0187
:100B500080934D0182EC90E09093500180934F017F
:100B600086EC90E0909352018093510184E0809351
:100B7000530183E08093540187E08093550185E021
:100B80008093560181E0809357010895CF93DF93BE
:100B90000E9498060E94DA00C3E2D4E00E94590144
:100BA0002097E1F30E942304F9CFCF92DF92EF92D6
:100BB000FF920F931F93CF93DF937C016B018A0108
:100BC000C0E0D0E00FC0D6016D916D01D701ED916D
:100BD000FC910190F081E02DC7010995C80FD91F44
:100BE000015010400115110571F7CE01DF91CF9131
:100BF0001F910F91FF90EF90DF90CF900895DC014F
:100C0000ED91FC910190F081E02D099508952F92CE
:100C10003F924F925F926F927F928F929F92AF928C
:100C2000BF92CF92DF92EF92FF920F931F93DF93C9
:100C3000CF93CDB7DEB73B014C0119012A016D8975
:100C40007E898F89988D6A197B098C099D09621AA2
:100C5000730A840A950AA40193010E94D306E2183C
:100C6000F30804091509A80197010E9433072A0D0A
:100C70003B1D4C1D5D1DB901CA01CF91DF911F9134
:100C80000F91FF90EF90DF90CF90BF90AF909F902B
:100C90008F907F906F905F904F903F902F9008952E
:100CA0001F920F920FB60F9211242F933F938F93A1
:100CB0009F93AF93BF938091E1019091E201A09146
:100CC000E301B091E4013091E5010196A11DB11D50
:100CD000232F2D5F2D3720F02D570196A11DB11D1B
:100CE0002093E5018093E1019093E201A093E30159
:100CF000B093E4018091DD019091DE01A091DF01CC
:100D0000B091E0010196A11DB11D8093DD0190938A
:100D1000DE01A093DF01B093E001BF91AF919F91FD
:100D20008F913F912F910F900FBE0F901F901895AC
:100D3000789484B5826084BD84B5816084BD85B5B6
:100D4000826085BD85B5816085BDEEE6F0E080817D
:100D500081608083E1E8F0E010828081826080839E
:100D6000808181608083E0E8F0E080818160808321
:100D7000E1EBF0E0808184608083E0EBF0E0808153
:100D800081608083EAE7F0E08081846080838081F5
:100D9000826080838081816080838081806880839D
:100DA0001092C1000895629FD001739FF001829F4D
:100DB000E00DF11D649FE00DF11D929FF00D839FEA
:100DC000F00D749FF00D659FF00D9927729FB00D87
:100DD000E11DF91F639FB00DE11DF91FBD01CF019A
:100DE00011240895991B79E004C0991F961708F003
:100DF000961B881F7A95C9F78095089597FB092E51
:100E000007260AD077FD04D049D006D000201AF476
:100E1000709561957F4F0895F6F7909581959F4F56
:100E20000895A1E21A2EAA1BBB1BFD010DC0AA1F2B
:100E3000BB1FEE1FFF1FA217B307E407F50720F043
:100E4000A21BB30BE40BF50B661F771F881F991FBE
:100E50001A9469F760957095809590959B01AC0107
:100E6000BD01CF01089597FB092E05260ED057FD31
:100E700004D0D7DF0AD0001C38F450954095309547
:100E800021953F4F4F4F5F4F0895F6F7909580950E
:100E9000709561957F4F8F4F9F4F0895AA1BBB1B85
:100EA00051E107C0AA1FBB1FA617B70710F0A61B6A
:100EB000B70B881F991F5A95A9F780959095BC018B
:100EC000CD010895EE0FFF1F0590F491E02D0994D8
:040ED000F894FFCFC4
:100ED40001000000003405D505EA040605F60424E3
:020EE400050007
:00000001FF
