:1000000040C064C063C062C061C060C05FC05EC009
:100010005DC0AEC35BC055C199C158C057C056C082
:1000200055C054C053C000000000370034003100F8
:1000300000000000380035003200000000003600EB
:100040003300300004040404040404040202020225
:10005000020203030303030301020408102040808B
:100060000102040810200102040810200000000012
:100070000000000000030405000000000000000074
:10008000150311241FBECFE5D4E0DEBFCDBF10E0C5
:10009000A0E6B0E0E2EEF8E002C005900D92A837CD
:1000A000B107D9F711E0A8E7B0E001C01D92A9326D
:1000B000B107E1F710E0C2E8D0E003C02297FE01EB
:1000C0000AD4C038D107D1F700D309C499CF8BE047
:1000D00060E0BDD08CE061E0BAD08DE061E0B7D0E7
:1000E0008BE061E0B4D008958BE060E0B0D08CE0AC
:1000F00060E0ADD08DE061E0AAD08BE061E0A7D0F8
:1001000008958BE060E0A3D08CE061E0A0D08DE0AA
:1001100060E09DD08BE061E09AD0089589E060E0D6
:1001200096D088E061E093D08AE061E090D089E0E9
:1001300061E08DD0089589E060E089D088E060E0DA
:1001400086D08AE061E083D089E061E080D00895C4
:1001500089E060E07CD088E061E079D08AE060E00E
:1001600076D089E061E073D0089581E091E0B6D166
:10017000181619065CF581E091E0E1D1682F8093B3
:10018000780081E091E0D6D2809178008137B9F093
:1001900082373CF4813679F0843679F0803289F404
:1001A00008C0833721F0873761F4D2DF0895C3DFB9
:1001B0000895B4DF0895A5DF089596DF089587DFD9
:1001C000089581E091E060E670E0D0D208958BE080
:1001D00061E017D089E061E014D08CE061E011D0DB
:1001E0008DE061E00ED088E061E00BD08AE061E054
:1001F00008D081E091E040E855E260E070E0E9D0AD
:100200000895482F50E0CA01885A9F4FFC0124915D
:100210004C5B5F4FFA0184918823C1F0E82FF0E036
:10022000EE0FFF1FEA5DFF4FA591B491662341F4E5
:100230009FB7F8948C91209582238C939FBF08954B
:100240009FB7F8948C91822B8C939FBF0895482F71
:1002500050E0CA0184599F4FFC012491CA01885A79
:100260009F4FFC0194914C5B5F4FFA013491332313
:1002700031F1222381F0243039F0253049F0233048
:1002800051F48FB58F7702C08FB58F7D8FBD03C0BE
:1002900085B58F7D85BDE32FF0E0EE0FFF1FE05D9C
:1002A000FF4FA591B4912FB7F894662321F48C9158
:1002B0009095892302C08C91892B8C932FBF089530
:1002C00008951F920F920FB60F9211242F933F9310
:1002D0004F938F939F93EF93FF934CB12091B9006D
:1002E0003091BA002F5F3F4F2F7330708091BB0069
:1002F0009091BC002817390759F0E091B900F091AE
:10030000BA00E758FF4F40833093BA002093B900FA
:10031000FF91EF919F918F914F913F912F910F906E
:100320000FBE0F901F901895E0910D01F0910E01F6
:10033000E05CFF4F8191919120813181821B930B71
:100340008F739070892B09F0BBDF08951F920F9275
:100350000FB60F9211242F933F934F935F936F9398
:100360007F938F939F93AF93BF93EF93FF932091CE
:10037000FD003091FE008091FF0090910001281750
:10038000390711F4559814C0E091FF00F091000175
:10039000E354FF4F40818091FF009091000101964E
:1003A00060E470E04DD2909300018093FF004CB95F
:1003B000FF91EF91BF91AF919F918F917F916F913D
:1003C0005F914F913F912F910F900FBE0F901F9013
:1003D0001895AF92BF92DF92EF92FF920F931F9307
:1003E000CF93DF93EC017A018B01DD24403081EE65
:1003F000580780E0680780E0780711F0DD24D39487
:1004000091E0A92EB12CEC89FD89DD2069F0C501B0
:100410000E8C02C0880F991F0A94E2F7808360E077
:1004200079E08DE390E005C0108260E874E88EE129
:1004300090E0A801970117D2215030404040504031
:10044000569547953795279580E12030380720F05D
:10045000DD2011F0DD24D7CFE889F9893083EA89DE
:10046000FB892083EE89FF89408121E030E0C901CA
:100470000A8C02C0880F991F0A94E2F7482B408328
:10048000EE89FF894081C9010B8C02C0880F991F3A
:100490000A94E2F7482B4083EE89FF894081C90125
:1004A0000C8C02C0880F991F0A94E2F7482B4083F6
:1004B000EE89FF8980810D8C02C0220F331F0A94C0
:1004C000E2F7209528232083DF91CF911F910F9190
:1004D000FF90EF90DF90BF90AF900895DC011C96E5
:1004E000ED91FC911D97E05CFF4F2191319180814E
:1004F0009181281B390B2F733070C9010895DC01DD
:100500001C96ED91FC911D97E05CFF4F208131819D
:10051000E054F040DF01AE5BBF4F8D919C9111978D
:100520002817390719F42FEF3FEF07C08D919C91E1
:10053000E80FF91F8081282F30E0C9010895DC0100
:100540001C96ED91FC911D97E05CFF4F208131815D
:10055000E054F040DF01AE5BBF4F8D919C9111974D
:100560002817390719F42FEF3FEF10C08D919C9198
:100570001197E80FF91F20818D919C911197019699
:100580008F73907011969C938E9330E0C9010895FB
:10059000FC0186859785DC01A05CBF4FFC01EE5B0A
:1005A000FF4F2D913C911197808191812817390738
:1005B000C1F70895CF93DF93EC01462FEE85FF85B9
:1005C000E05CFF4F80819181E054F040019660E44F
:1005D00070E036D19C01DF01AE5BBF4F8D919C91E5
:1005E000119728173907D1F3E05CFF4F8081918183
:1005F000E054F040E80FF91F4083EE85FF85E05C92
:10060000FF4F31832083EE89FF89208181E090E0D4
:100610000D8C02C0880F991F0A94E2F7282B2083C3
:1006200081E090E0DF91CF91089510920401109243
:10063000030188EE93E0A0E0B0E080930501909381
:100640000601A0930701B09308018CE690E0909317
:1006500002018093010189E790E090930E0180935D
:100660000D018DEB90E09093100180930F0180E4D9
:1006700090E0909312018093110189E290E09093B1
:100680001401809313018BE290E090931601809304
:1006900015018AE290E090931801809317018CE293
:1006A00090E090931A018093190184E080931B01DC
:1006B00083E080931C0187E080931D0185E0809397
:1006C0001E0181E080931F010895CF93DF9398D09E
:1006D0007EDDC4E9D1E049DD2097E9F325DEFBCFDB
:1006E000CF92DF92EF92FF920F931F93CF93DF93FE
:1006F0007C016B018A01C0E0D0E00FC0D6016D9192
:100700006D01D701ED91FC910190F081E02DC701C1
:100710000995C80FD91F015010400115110571F737
:10072000CE01DF91CF911F910F91FF90EF90DF905D
:10073000CF900895DC01ED91FC910190F081E02DC6
:1007400009950895CF93DF93DB010D900020E9F721
:100750001197A61BB70BEC01E881F9810280F381A8
:10076000E02DAD010995DF91CF910895EBDF08955C
:100770001F920F920FB60F9211242F933F938F93D6
:100780009F93AF93BF938091240190912501A091F5
:100790002601B0912701309128010196A11DB11DBC
:1007A000232F2D5F2D3720F02D570196A11DB11D50
:1007B000209328018093240190932501A093260182
:1007C000B09327018091200190912101A0912201F5
:1007D000B09123010196A11DB11D8093200190933A
:1007E0002101A0932201B0932301BF91AF919F916A
:1007F0008F913F912F910F900FBE0F901F901895E2
:10080000789483B7826083BF83B7816083BF89B7E1
:10081000816089BF1EBC8EB582608EBD8EB5816041
:100820008EBD8FB581608FBD85B5846085BD85B572
:10083000806485BD329A319A309A379A1AB80895F1
:1008400097FB092E07260AD077FD04D02ED006D0BC
:1008500000201AF4709561957F4F0895F6F79095F2
:1008600081959F4F0895A1E21A2EAA1BBB1BFD0183
:100870000DC0AA1FBB1FEE1FFF1FA217B307E4077F
:10088000F50720F0A21BB30BE40BF50B661F771FD7
:10089000881F991F1A9469F76095709580959095B7
:1008A0009B01AC01BD01CF010895AA1BBB1B51E107
:1008B00007C0AA1FBB1FA617B70710F0A61BB70BD0
:1008C000881F991F5A95A9F780959095BC01CD0175
:1008D0000895EE0FFF1F0590F491E02D0994F89410
:0208E000FFCF48
:1008E200206572726F72200000000000DA0270034D
:0808F2006E029F027F02C802A2
:00000001FF
